:08000000803102288731F82F3E
:100E8C00013425009A170800F3002E000F1E4B2F7B
:100E9C00730822009A000800103031008D008F0179
:100EAC009101053093009201080000302E00901A39
:100EBC000130F3007308031D90127308080008300A
:100ECC0022009F0080309D0024309E0040309B000B
:100EDC0003309C0008008731C027873187315227A7
:100EEC00873187317D27873187316527080070303E
:100EFC0025009A0004309C009B019D01FD30990057
:100F0C0098012E00901287314727080087317127EE
:100F1C00873187315B278731003A03198F2F0310F4
:100F2C002000161C0314031C9E2F20001614A02F47
:100F3C002000161072080319B12F413087314A274F
:100F4C008731423087314A2787310D3087314A2724
:100F5C008731F2018F2F463087314A27873147304E
:100F6C0087314A2787310D3087314A278731F20183
:100F7C00F20A8F2F2000960197019801FE30910004
:100F8C00FF309200BE309300FF303E00CE007F3029
:100F9C00C300FF30B800E501C401B901CF01BA01AB
:100FAC00C501D00100308B1B0130F3008B13553081
:100FBC003D008F00AA308F000F101E08E0390F384B
:100FCC009E0010303E00A0001030A60055303D00B1
:100FDC008F00AA308F000F14731CF62F8B1708008C
:100FEC008B13080087314627F200F001F101200035
:040FFC0087318C2F7E
:020000040001F9
:0A000E009C3FFF3F9F3FFF1FFF3F95
:00000001FF
