:0400000080313428EF
:100008007E14803120007F08FD000B1F13282E006E
:10001800191A0F1E13288431512480312F280B1FE1
:100028001D282E00991A8F1E1D288431A524803181
:100038002F280B1F27282E0099198F1D2728853157
:10004800612580312F280B1F2F282E0019190F1D0D
:100058002F28803150207D082000FF007E100900E5
:1000680080313628F001F101F201F301F401F501C4
:10007800F601203084000030850029308531522572
:100088008031A03084000030850008308531522549
:100098007E1020008231482A2E000F1123009A1F5B
:1000A80084299A132000B4017308023E8600870150
:1000B8000108860087018101810AF3010800AA1856
:1000C80008002908F9007908F30029088600870143
:1000D8000108F9007908B500290886008701413F21
:1000E800F4000330F9007908A9072908493A031DE3
:1000F80081284630F9007908A9002A10290828061D
:100108000319AA1423001B140230F90079082000EF
:10011800B400080023009B140230F900790820007D
:10012800B400080023001B1FA2280130F900790839
:100138002000AC0704308431F02408007608FA0067
:100148007508F900FA36F90C790823009600751C31
:10015800B3280B30F90079082000B40008000330F8
:10016800F90079082000B400080023001B1FC528E7
:100178000130F90079082000AC0704308431F024FC
:1001880008009B147608FA007508F9007A08F90047
:10019800FA0106307905FB0000307A05FC00F030E2
:1001A8007B04F50000307C04F60075142000AF01D4
:1001B800AF0A0230F9007908B40008002F030319C8
:1001C800F628740886008701403FF500413FF60095
:1001D800740886008701433FB100740886008701D0
:1001E800423FB000750823009600751C01290530B0
:1001F800F90079082000B40008000330F9007908F4
:100208002000B400080023001B1F15290130F90045
:1002180079082000AC0723001B1305308431F02433
:10022800080001302000B002300A031D2F290430D5
:10023800F9007908F4070130B502031D27290030B9
:100248008431F024080023009B140230F900790857
:100258002000B40008003108860087010108230047
:1002680096000130F90079082000B1070800230042
:100278001B1F49290130F90079082000AC07043018
:100288008431F02423001B1308009B150830F90063
:1002980079082000B40008000830F9007908B40093
:1002A80023009B15080023001608F90020003108D8
:1002B80086008701790881000130F9007908B107C3
:1002C8000130B0020319702923009B120630F9008F
:1002D80079082000B400742923009B1685311A255B
:1002E80023001B16080000308431F0240800013078
:1002F800F90079082000AC0706308431F0240800A2
:100308002000340884000C30040203187B2984314F
:100318000435D83E8200080059302000DD005D0811
:10032800E10020005808DE005708DD00D70A03194D
:10033800D80A5D0884005E0885000008DF005F08B1
:10034800E600660803190800253066060319B12976
:10035800660885315825813195292000E201580821
:10036800DE005708DD00D70A0319D80A5D088400A3
:100378005E0885000008E600003A0319472A643A37
:100388000319CA290D3A0319CA2995296108860053
:100398008701403FE400413FE5000230DD005D0891
:1003A800E107E51FE0290330DD005D08E204E40908
:1003B800E509E40A0319E50AE601E60A05306606D6
:1003C8000319052A6608DD00DE01DD35DE0D08307B
:1003D8005D07840085305E3D8500003FDF00013FFA
:1003E800E00060086502031DFB295F086402031C26
:1003F800052A0130DD005D08E60705306606031DA5
:10040800E6296208033903190D2A2D30853158254C
:10041800813120006608DD005D08E300FF30200020
:10042800DD005D08E307630A031995290A30D10046
:100438000030D2006308DD00DE01DD35DE0D083056
:100448005D07840085305E3D8500003FC900013F9F
:10045800CA006508CC006408CB008331832381314E
:1004680020004A08D4004908D3008331B8238131D9
:1004780020005108303EDF005F08E600660885313D
:1004880058258131122A080085312B2582318B1796
:100498000B1720008C1A4D2A25001808031D4D2A19
:1004A80085315E25823103102000161C0314031CBD
:1004B800602A20001614622A200016101830D7006F
:1004C8008530D8008131902182310D3084310D245E
:1004D800823169302000E7006708D000003083319E
:1004E80047238231003A03194D2A6A302000E70079
:1004F8006708D000023083314723823120006A0820
:10050800E7000630E736890B862A6708E80068089E
:10051800EA00E91F952A6A03FF3A033EE7006708E5
:10052800EA001230D7008530D8006908D900DA010E
:10053800D91BDA036A08E700E8016708C9006808F8
:10054800CA001930CB000030CC0084316E248231CF
:1005580020004A08DC004908DB0081319021823103
:100568004D2A2000960197019801FC309100FF3038
:100578009200BE309300E5303E00CE007F30C300CD
:10058800DC30B800E501C401B901CF01BA01C501E9
:10059800D00100308B1B01302000C9008B1355306F
:1005A8003D008F00AA308F000F101E08E0390F3869
:1005B8009E0010303E00A0003D004B08E039113885
:1005C800CB0017303E00A3001630A4001030A60060
:1005D8003D004908E0391338C9004808E0391438A3
:1005E800C80055308F00AA308F000F142000491C16
:1005F800FF2A8B1708008B1308002000CC002A184C
:10060800352B0230CB004A08860087014B08810051
:100618004908CB00280A860087014B0881004C084E
:10062800CB002808860087014B0881004A08CB00C8
:100638002808023E860087014B0881000330CB0062
:100648004B08A8072808493A031D2E2B4630CB0033
:100658004B08A800AA1029082806031D3A2B2A14BB
:100668003A2B4A08860087018101810A4A088600D8
:10067800870102300106031D08003408031D412BC1
:100688002E000F1508002000D3000230D1005108B9
:10069800D4005330D1005108C900CA01CA0A383001
:1006A800CB000030CC003630843131248331200037
:1006B8005008D1005108C900CA01CA0A3830CB0015
:1006C8000030CC003A308331E523833136302000C6
:1006D800D1005108C9005430D2005208CA00023073
:1006E8008331012383310230200054060319772B0C
:1006F8005408031D812B0130080000300800200039
:10070800CE01CF0149084A040319B32BD001D00AFE
:10071800CA1B982B0130C935CA0D890B8F2B0130A4
:10072800CD004D08D0078C2B0130CE35CF0D890B6D
:10073800992B4A084C02031DA32B49084B02031CA2
:10074800AA2B4908CB024A08CC3B4E140130CA36C2
:10075800C90C890BAB2B0130D002031D982B4F0815
:10076800CA004E08C90008002000510852040319A5
:10077800E02BD601D60AD21BCB2B0130D135D20DB6
:10078800890BC22B0130D5005508D607BF2B52085C
:100798005402031DD12B51085302031CD72B5108B7
:1007A800D3025208D43B0130D236D10C890BD82B56
:1007B8000130D602031DCB2B5408D2005308D100B8
:1007C80008002000CF004C08CE004B08CD00CD35E6
:1007D800CE0D4F08860087014D08C03F4E08C13F27
:1007E8004F088600870101308104413100308104BF
:1007F8004A08CD004F08023E860087014D08810057
:100808004908CD004F08033E860087014D08810046
:1008180008002000CA006B0803190F2C2E00191AB3
:100828001A2C20004A0822009A002E2C19122000A7
:100838004A08C9007108203E8600870149088100DE
:100848000130C9004908F107083071020318F101A5
:100858000130EB022E00191608002000CF004C08CA
:10086800CE004B08CD00CD35CE0D4F088600870150
:100878004D08C03F4E08C13F4A08CD004F08023E10
:10088800860087014D0881004908CD004F08033EC6
:10089800860087014D0881000800083020006B029F
:1008A80003186B2C7208203E86008701010822007D
:1008B8009A000130F7007708F2070830720203182F
:1008C800F2010130F70077082000EB0708002E003E
:1008D800191208002000CD01CE01491C772C4B08C5
:1008E800CD074C08CE3D0130CB35CC0D890B782C8B
:1008F8000130CA36C90C890B7D2C49084A04031DEE
:10090800712C4E08CA004D08C90008002E00991223
:100918001912083022009F0090309D0024309E005C
:1009280040309B0003309C00F101F20108302000A8
:10093800C9004908EB00F001B301B2012E00991675
:10094800080022009D1CAA2C1D121D161908F7006C
:100958007008A03E86008701770881000130F70003
:100968007708F007083070020318F0010130F7002B
:1009780077082000B207080046302000C90049085F
:10098800A9004630C9004908A800AA142A10AC01D9
:1009980080302300990028309A009C019F309700EE
:1009A8002E000F11191508008031632880318E2818
:1009B8008031E228813107298131772981313B292A
:1009C80081315029813177298131572981317B291A
:1009D800803196288031B928F80023001B15730848
:1009E800023E8600870101080319052D7808F700E3
:1009F8007308023E86008701010886008701770890
:100A080081002000B4010800013400340A340034A5
:100A180064340034E834033410342734253464341F
:100A28002E342534643400340A3400340430F7009A
:100A38007708F40701302000B502031D282D043083
:100A4800F7007708B4000800B401B40A080082313E
:100A5800B52285318531492585318431C0248531D8
:100A680085313A25853184318A240800793025007A
:100A78009A0004309C009B019D012F309900980139
:100A88002E00901285315E250800103031008D004F
:100A98008F019101053093009201080064008001E4
:100AA8000131890B532D00342000CB004B088431D1
:0C0AB8000D24080025009A170800080013
:020000040001F9
:0A000E009C3FFF3F9F3FFF1FFF3F95
:00000001FF
