:040000008031202803
:100008007E14803120007F08FD000B1F13282E006E
:1000180099198F1D13288431022480311B280B1F46
:100028001B282E0019190F1D1B28803134207D082C
:100038002000FF007E10090080312228F001F10124
:10004800F201F301F401F501F601203084000030DB
:1000580085001E308331E6237E10200081316F2910
:100068002E000F1123009A1F63299A132000AA015A
:100078007308023E86008701010886008701810116
:10008800810AF3010800A21808002108F90079087C
:10009800F3002108860087010108F9007908F200B9
:1000A800210886008701413FF4000330F9007908F0
:1000B800A10721083E3A031D65283B30F90079085D
:1000C800A1002210210820060319A21423001B14E2
:1000D8000230F90079082000AA00080023009B14C8
:1000E8000230F90079082000AA00080023001B1F2D
:1000F80086280130F90079082000A40704308331EC
:100108004C2308007608FA007508F900FA36F90C4D
:10011800790823009600751C97280B30F900790898
:100128002000AA0008000330F90079082000AA007E
:10013800080023001B1FA9280130F90079082000B6
:10014800A407043083314C2308009B147608FA0076
:100158007508F9007A08F900FA0106307905FB00FC
:1001680000307A05FC00F0307B04F50000307C0498
:10017800F60075142000A901A90A0230F9007908CF
:10018800AA00080029030319DA28740886008701E1
:10019800403FF500413FF600740886008701433F61
:1001A800F100740886008701423FF00075082300BB
:1001B8009600751CE5280530F90079082000AA008A
:1001C80008000330F90079082000AA00080023007D
:1001D8001B1FF9280130F90079082000A407230023
:1001E8001B13053083314C2308000130F002700ADC
:1001F800031D12290430F9007908F4070130F202CE
:10020800031D0A29003083314C23080023009B1466
:100218000230F90079082000AA0008007108860059
:1002280087010108230096000130F9007908F107D9
:10023800080023001B1F2B290130F9007908200032
:10024800A407043083314C2323001B1308009B159B
:100258000830F90079082000AA0008000830F900E1
:100268007908AA0023009B15080023001608F90046
:10027800710886008701790881000130F900790842
:10028800F1070130F002031950299B120630F900DA
:1002980079082000AA0053299B1683318B23230059
:1002A8001B160800003083314C2308000130F90088
:1002B80079082000A407063083314C230800200069
:1002C8002A0884000C30040203185A2983310435A3
:1002D800343E820008002000CC018331792381312B
:1002E8008B170B178331EC2381318331AC23813198
:1002F800003A031979298331F22381318331AC2300
:100308008131003A0319822903102000161D0314B5
:10031800031C9129200016159329200016118331FA
:10032800642381312000CA004A08CE0047304E06B7
:10033800031DDF2925001808031DDF298331FC234D
:10034800813103102000161C0314031CAE29200061
:100358001614B029200016104D30CA004A08C500EE
:100368000030823198228131003A0319DB294F305D
:100378002000CA004A08C500023082319822813123
:1003880020004F08CA000630CA36890BC8294A0817
:10039800CB004B08CF00CD1FD7294F03FF3A033EB0
:1003A800CA004A08CF004F308331D32381318331CB
:1003B800F8238131822920004E080319822925005B
:1003C8001808031D8229200096158331FC238131EA
:1003D80001302000CA004A08CC074C088331D323D7
:1003E80081310D308331D323813120004E08833190
:1003F800D32381318331F82381318229200096016A
:1004080097019801F0309100FF309200BE309300C0
:10041800C5303E00CE007F30C300D030B800E501C3
:10042800C401B901CF01BA01C501D00100308B1B4D
:1004380001302000BE008B1355303D008F00AA30DC
:100448008F000F101E08E0390F389E001D08E03994
:1004580015389D0010303E00A0003D004B08E039E3
:100468001138CB0017303E00A3001630A40010301E
:10047800A6003D004908E0391338C9004808E039AA
:100488001438C80055308F00AA308F000F14200090
:100498003E1C502A8B1708008B1308002000C1004F
:1004A8002218862A0230C0003F08860087014008CB
:1004B80081003E08C000200A8600870140088100AC
:1004C8004108C000200886008701400881003F08D5
:1004D800C0002008023E86008701400881000330E2
:1004E800C0004008A00720083E3A031D7F2A3B3081
:1004F800C0004008A000A21021082006031D8B2A76
:1005080022148B2A3F08860087018101810A3F084F
:100518008600870102300106031D08002A08031D12
:10052800922A2E000F1508002000C8000230C600CD
:100538004608C9004830C6004608BE00BF01BF0AC9
:100548003830C0000030C1002B308231FC228231AB
:1005580020004508C6004608BE00BF01BF0A383063
:10056800C0000030C1002F308231D42282312B30BC
:100578002000C6004608BE004930C7004708BF0033
:10058800023082315222823102302000490603199A
:10059800C82A4908031DD22A013008000030080083
:1005A8002000C4004108C3004008C200C235C30D82
:1005B8004408860087014208C03F4308C13F4408F9
:1005C80086008701013081044131003081043F08F1
:1005D800C2004408023E86008701420881003E08A6
:1005E800C2004408033E86008701420881000800D3
:1005F8002000C4004108C3004008C200C235C30D32
:100608004408860087014208C03F4308C13F3F08AD
:10061800C2004408023E86008701420881003E0865
:10062800C2004408033E8600870142088100080092
:100638003B302000BE003E08A1003B30BE003E0813
:10064800A000A2142210A4018030230099002830B1
:100658009A009C019F3097002E000F111915080071
:1006680080314728803172288031C6288031EB28B4
:100678008131562981311D2981313229813156290B
:100688008131392981315A2980317A2880319D2850
:10069800F80023001B157308023E86008701010835
:1006A8000319612B7808F7007308023E860087015A
:1006B800010886008701770881002000AA01080048
:1006C80003102000961C0314031C6D2B20009614A5
:1006D8006F2B200096102E008F1E6F2B22009D1C62
:1006E800772B1D121D16190808008231022283314A
:1006F8008331DD23833183311C23833183319D236F
:1007080083318331BA2383318331C723080004300E
:10071800F7007708F4070130F202031D992B043023
:10072800F70077082000AA0008002000AA01AA0AFA
:100738000800703025009400043096009501970158
:10074800FF30930092012E0090118331FF2308009F
:1007580000302E00901901302000BE003E08031919
:10076800B72B2E00901120003E0808007930250094
:100778009A0004309C009B019D012F30990098013C
:100788002E0090120800083022009F0090309D0033
:1007980024309E0040309B0003309C00080020005D
:1007A800BE002E000F1ED52B20003E0822009A0006
:1007B8000800103031008D008F0191010530930041
:1007C80092010800640080010131890BE72B003495
:1007D80020001614961416159615080020001610F9
:1007E800961016119611080025009A139801080012
:0E07F80025009A170800250094170800080035
:020000040001F9
:0A000E009C3FFF3F9F3FFF1FFF3F95
:00000001FF
