:08000000803102288731F82F3E
:100EA200013425009A170800F3002E000F1E562F5A
:100EB200730822009A000800103031008D008F0163
:100EC2009101053093009201080000302E00901A23
:100ED2000130F3007308031D9012730808000830F4
:100EE20022009F0080309D0024309E0040309B00F5
:100EF20003309C0008008731C027873187315D2786
:100F02008731873188278731873170270800703011
:100F120025009A0004309C009B019D01FD30990040
:100F220098012E00901287315227080087317C27C2
:100F32008731873166278731003A03199A2F720861
:100F42000319B12F4130873155278731423087311C
:100F5200552787310D30873155278731F2019A2F76
:100F620046308731552787314730873155278731BA
:100F72000D30873155278731F201F20A9A2F20006E
:100F8200960197019801FF309100FF309200BE3028
:100F92009300FF303E00CE007F30C300FF30B80028
:100FA200E501C401B901CF01BA01C501D001003088
:100FB2008B1B0130F3008B1355303D008F00AA309C
:100FC2008F000F101E08E0390F389E0010303E00CF
:100FD200A0001030A60055303D008F00AA308F00CF
:100FE2000F14731CF62F8B1708008B130800F001E7
:0E0FF200F10187315127F20020008731972F3F
:020000040001F9
:0A000E009C3FFF3F9F3FFF1FFF3F95
:00000001FF
