:040000008031202803
:100008007E14803120007F08FD000B1F13282E006E
:1000180099198F1D13288531712580311B280B1FD5
:100028001B282E0019190F1D1B28803134207D082C
:100038002000FF007E10090080312228F001F10124
:10004800F201F301F401F501F601433084000030B8
:1000580085001E3085315B257E1020008231272ADD
:100068002E000F1123009A1F63299A132000CD0137
:100078007308023E86008701010886008701810116
:10008800810AF3010800C51808004408F900790836
:10009800F3004408860087010108F9007908F20096
:1000A800440886008701413FF4000330F9007908CD
:1000B800C4074408613A031D65285E30F9007908D1
:1000C800C4004510440843060319C51423001B1433
:1000D8000230F90079082000CD00080023009B14A5
:1000E8000230F90079082000CD00080023001B1F0A
:1000F80086280130F90079082000C70704308431C8
:10010800C22408007608FA007508F900FA36F90CD6
:10011800790823009600751C97280B30F900790898
:100128002000CD0008000330F90079082000CD0038
:10013800080023001B1FA9280130F90079082000B6
:10014800C70704308431C22408009B147608FA00DB
:100158007508F9007A08F900FA0106307905FB00FC
:1001680000307A05FC00F0307B04F50000307C0498
:10017800F60075142000CC01CC0A0230F900790889
:10018800CD0008004C030319DA287408860087019B
:10019800403FF500413FF600740886008701433F61
:1001A800F100740886008701423FF00075082300BB
:1001B8009600751CE5280530F90079082000CD0067
:1001C80008000330F90079082000CD00080023005A
:1001D8001B1FF9280130F90079082000C707230000
:1001E8001B1305308431C22408000130F002700A64
:1001F800031D12290430F9007908F4070130F202CE
:10020800031D0A2900308431C224080023009B14EE
:100218000230F90079082000CD0008007108860036
:1002280087010108230096000130F9007908F107D9
:10023800080023001B1F2B290130F9007908200032
:10024800C70704308431C22423001B1308009B1500
:100258000830F90079082000CD0008000830F900BE
:100268007908CD0023009B15080023001608F90023
:10027800710886008701790881000130F900790842
:10028800F1070130F002031950299B120630F900DA
:1002980079082000CD0053299B16853101252300BC
:1002A8001B16080000308431C22408000130F90010
:1002B80079082000C70706308431C22408002000CE
:1002C8004D0884000C30040203185A29843104357F
:1002D800AA3E8200080030302000B4003408B8007C
:1002E80020002F08B5002E08B400AE0A0319AF0A83
:1002F80034088400350885000008B6003608BD00BB
:100308003D080319080025303D06031990293D08CA
:1003180085316125813174292000B9012F08B50084
:100328002E08B400AE0A0319AF0A34088400350851
:1003380085000008BD00003A0319262A643A03190B
:10034800A9290D3A0319A9297429380886008701B3
:10035800403FBB00413FBC000230B4003408B8073E
:10036800BC1FBF290330B4003408B904BB09BC0959
:10037800BB0A0319BC0ABD01BD0A05303D060319B5
:10038800E4293D08B400B501B435B50D063034078D
:1003980084008430353D8500003FB600013FB7003A
:1003A80037083C02031DDA2936083B02031CE429FE
:1003B8000130B4003408BD0705303D06031DC529CA
:1003C800390803390319EC292D308531612581312C
:1003D80020003D08B4003408BA00FF302000B40003
:1003E8003408BA073A0A031974290A30A8000030F9
:1003F800A9003A08B400B501B435B50D0630340784
:1004080084008430353D8500003FA000013FA100F5
:100418003C08A3003B08A2008331A42381312000BB
:100428002108AB002008AA008331D923813120009C
:100438002808303EB6003608BD003D0885316125E4
:100448008131F12908008431EF2482318B170B1791
:10045800853113258231003A03192C2A20001615FC
:100468008431DA2482312000BE003E08C0004730C3
:100478004006031DA42A25001808031DA42A853157
:100488006B25823103102000161C0314031C4F2A0D
:1004980020001614512A200016102C30AE0084308B
:1004A800AF0081316F2182310D308531482582318D
:1004B80041302000BE003E08A70000308331682389
:1004C8008231003A0319CC2A42302000BE003E088F
:1004D800A700023083316823823120004208BE0021
:1004E8000630BE36890B752A3E08BF003F08C20099
:1004F800C11F842A4203FF3A033EBE003E08C200E1
:100508002630AE008430AF004108B000B101B01B06
:10051800B1034208BE00BF013E08A0003F08A10089
:100528001930A2000030A3008431762482312000E3
:100538002108B3002008B20081316F218231CC2A12
:10054800200040080319CF2A25001808031DCF2AC8
:1005580085316B2582312C302000AE008430AF000D
:1005680081316F2182310D3085314825823110303B
:100578002000AE008430AF0081316F21823120002D
:1005880040088531482582310D3085314825823132
:10059800853167258231200016112C2A200096010A
:1005A80097019801F0309100FF309200BE3093001F
:1005B800C5303E00CE007F30C300D030B800E50122
:1005C800C401B901CF01BA01C501D00100308B1BAC
:1005D80001302000A0008B1355303D008F00AA3059
:1005E8008F000F101E08E0390F389E001D08E039F3
:1005F80015389D0010303E00A0003D004B08E03942
:100608001138CB0017303E00A3001630A40010307C
:10061800A6003D004908E0391338C9004808E03908
:100628001438C80055308F00AA308F000F142000EE
:10063800201C202B8B1708008B1308002000A30018
:100648004518562B0230A20021088600870122088F
:1006580081002008A200430A860087012208810041
:100668002308A20043088600870122088100210888
:10067800A2004308023E8600870122088100033059
:10068800A2002208C3074308613A031D4F2B5E30BE
:10069800A2002208C300C51044084306031D5B2BB3
:1006A80045145B2B2108860087018101810A2108F6
:1006B8008600870102300106031D08004D08031D4E
:1006C800622B2E000F1508002000AA000230A80097
:1006D8002808AB002A30A8002808A000A101A10A18
:1006E8003830A2000030A3004E30843156248331C4
:1006F80020002708A8002808A000A101A10A383076
:10070800A2000030A300523084312E2483314E30B1
:100718002000A8002808A0002B30A9002908A10063
:100728000230833122238331023020002B06031943
:10073800982B2B08031DA22B01300800003008005D
:100748002000A501A601200821040319D42BA70124
:10075800A70AA11BB92B0130A035A10D890BB02B1D
:100768000130A4002408A707AD2B0130A535A60D3C
:10077800890BBA2B21082302031DC42B200822024F
:10078800031CCB2B2008A2022108A33B251401300F
:10079800A136A00C890BCC2B0130A702031DB92B65
:1007A8002608A1002508A000080020002808290420
:1007B8000319012CAD01AD0AA91BEC2B0130A8359A
:1007C800A90D890BE32B0130AC002C08AD07E02BF9
:1007D80029082B02031DF22B28082A02031CF82BD8
:1007E8002808AA022908AB3B0130A936A80C890BB6
:1007F800F92B0130AD02031DEC2B2B08A9002A08A8
:10080800A8000800013400340A3400346434003489
:10081800E83403341034273455346E347234653474
:1008280063346F3467346E3469347A3465346434CD
:10083800203469346E3470347534743420343A3466
:1008480020340034253464342E34253464340034A0
:100858000A3400342000A6002308A5002208A400BA
:10086800A435A50D2608860087012408C03F250861
:10087800C13F2608860087010130810441310030DC
:1008880081042108A4002608023E86008701240866
:1008980081002008A4002608033E8600870124085A
:1008A800810008002000A6002308A5002208A40053
:1008B800A435A50D2608860087012408C03F250811
:1008C800C13F2108A4002608023E860087012408AB
:1008D80081002008A4002608033E8600870124081A
:1008E800810008002000A401A501201C7F2C2208FB
:1008F800A4072308A53D0130A235A30D890B802C40
:100908000130A136A00C890B852C20082104031D79
:10091800792C2508A1002408A00008005E302000DA
:10092800A0002008C4005E30A0002008C300C51441
:100938004510C70180302300990028309A009C0197
:100948009F3097002E000F11191508008031472895
:10095800803172288031C6288031EB2881315629B0
:1009680081311D2981313229813156298131392935
:1009780081315A2980317A2880319D28F800230056
:100988001B157308023E8600870101080319D72C3E
:100998007808F7007308023E860087010108860080
:1009A8008701770881002000CD010800031020008E
:1009B800961C0314031CE32C20009614E52C20003D
:1009C80096102E008F1EE52C22009D1CED2C1D126A
:1009D8001D16190808008231D2228431853152252A
:1009E80084318431922484318531212584318531C3
:1009F8002F25843185313C2508000430F70077081D
:100A0800F4070130F202031D0F2D0430F7007708B8
:100A18002000CD0008002000CD01CD0A08000030DC
:100A28002E00901901302000A000200803191E2D67
:100A38002E009011200020080800250094010430A1
:100A4800960095019701FF30930092012E009011B6
:100A580085316E250800793025009A0004309C0005
:100A68009B019D012F30990098012E0090120800DB
:100A7800083022009F0090309D0024309E004030B6
:100A88009B0003309C0008002000A0002E000F1ED1
:100A98004A2D2000200822009A000800103031005A
:100AA8008D008F01910105309300920108006400C8
:100AB80080010131890B5C2D00342000A100210840
:100AC80085314825080025009A139801080025005B
:0C0AD8009A170800250094170800080079
:020000040001F9
:0A000E009C3FFF3F9F3FFF1FFF3F95
:00000001FF
