:040000008031202803
:100008007E14803120007F08FD000B1F13282E006E
:1000180099198F1D13288431DA2480311B280B1F6E
:100028001B282E0019190F1D1B28803134207D082C
:100038002000FF007E10090080312228F001F10124
:10004800F201F301F401F501F601423084000030B9
:1000580085001C308431CB247E1020008231272A71
:100068002E000F1123009A1F63299A132000CA013A
:100078007308023E86008701010886008701810116
:10008800810AF3010800C41808004308F900790838
:10009800F3004308860087010108F9007908F20097
:1000A800430886008701413FF4000330F9007908CE
:1000B800C30743085E3A031D65285B30F9007908D9
:1000C800C3004410430842060319C41423001B1438
:1000D8000230F90079082000CA00080023009B14A8
:1000E8000230F90079082000CA00080023001B1F0D
:1000F80086280130F90079082000C60704308431C9
:10010800522408007608FA007508F900FA36F90C46
:10011800790823009600751C97280B30F900790898
:100128002000CA0008000330F90079082000CA003E
:10013800080023001B1FA9280130F90079082000B6
:10014800C60704308431522408009B147608FA004C
:100158007508F9007A08F900FA0106307905FB00FC
:1001680000307A05FC00F0307B04F50000307C0498
:10017800F60075142000C901C90A0230F90079088F
:10018800CA00080049030319DA28740886008701A1
:10019800403FF500413FF600740886008701433F61
:1001A800F100740886008701423FF00075082300BB
:1001B8009600751CE5280530F90079082000CA006A
:1001C80008000330F90079082000CA00080023005D
:1001D8001B1FF9280130F90079082000C607230001
:1001E8001B1305308431522408000130F002700AD4
:1001F800031D12290430F9007908F4070130F202CE
:10020800031D0A29003084315224080023009B145E
:100218000230F90079082000CA0008007108860039
:1002280087010108230096000130F9007908F107D9
:10023800080023001B1F2B290130F9007908200032
:10024800C60704308431522423001B1308009B1571
:100258000830F90079082000CA0008000830F900C1
:100268007908CA0023009B15080023001608F90026
:10027800710886008701790881000130F900790842
:10028800F1070130F002031950299B120630F900DA
:1002980079082000CA0053299B1684317C24230046
:1002A8001B16080000308431522408000130F90080
:1002B80079082000C607063084315224080020003F
:1002C8004A0884000C30040203185A298431043582
:1002D8003A3E8200080030302000B4003408B800EC
:1002E80020002F08B5002E08B400AE0A0319AF0A83
:1002F80034088400350885000008B6003608BD00BB
:100308003D080319080025303D06031990293D08CA
:100318008431D124813174292000B9012F08B50016
:100328002E08B400AE0A0319AF0A34088400350851
:1003380085000008BD00003A0319262A643A03190B
:10034800A9290D3A0319A9297429380886008701B3
:10035800403FBB00413FBC000230B4003408B8073E
:10036800BC1FBF290330B4003408B904BB09BC0959
:10037800BB0A0319BC0ABD01BD0A05303D060319B5
:10038800E4293D08B400B501B435B50D6A30340729
:1003980084008430353D8500003FB600013FB7003A
:1003A80037083C02031DDA2936083B02031CE429FE
:1003B8000130B4003408BD0705303D06031DC529CA
:1003C800390803390319EC292D308431D1248131BE
:1003D80020003D08B4003408BA00FF302000B40003
:1003E8003408BA073A0A031974290A30A8000030F9
:1003F800A9003A08B400B501B435B50D6A30340720
:1004080084008430353D8500003FA000013FA100F5
:100418003C08A3003B08A20083315C238131200003
:100428002108AB002008AA008331912381312000E4
:100438002808303EB6003608BD003D088431D12476
:100448008131F129080084318E2482318B170B17F2
:1004580020008C1A2C2A25001808031D2C2A843108
:10046800D724823103102000161C0314031C3F2AD2
:1004780020001614412A200016107A30AE0084306D
:10048800AF0081316F2182310D308431B82482313F
:1004980040302000BE003E08A700003083312023F2
:1004A8008231003A03192C2A41302000BE003E0850
:1004B800A700023083312023823120004108BE008A
:1004C8000630BE36890B652A3E08BF003F08C100CA
:1004D800C01F742A4103FF3A033EBE003E08C10014
:1004E8007430AE008430AF004008B000B101B01BDA
:1004F800B1034108BE00BF013E08A0003F08A100AB
:100508001930A2000030A300843106248231200073
:100518002108B3002008B20081316F2182312C2AD2
:100528002000960197019801FC309100FF3092005D
:10053800BE309300E7303E00CE007F30C300DC3091
:10054800B800E501C401B901CF01BA01C501D00164
:1005580000308B1B01302000A0008B1355303D006C
:100568008F00AA308F000F101E08E0390F389E0048
:1005780010303E00A0001730A3001630A400103041
:10058800A6003D004908E0391338C9004808E03999
:100598001438C80055308F00AA308F000F1420007F
:1005A800201CD82A8B1708008B1308002000A300F2
:1005B80044180E2B0230A200210886008701220869
:1005C80081002008A200420A8600870122088100D3
:1005D8002308A2004208860087012208810021081A
:1005E800A2004208023E86008701220881000330EB
:1005F800A2002208C20742085E3A031D072B5B309F
:10060800A2002208C200C41043084206031D132B8F
:100618004414132B2108860087018101810A2108CF
:100628008600870102300106031D08004A08031DE1
:100638001A2B2E000F1508002000AA000230A8006F
:100648002808AB002A30A8002808A000A101A10AA8
:100658003830A2000030A3004B308331E6238331C9
:1006680020002708A8002808A000A101A10A383006
:10067800A2000030A3004F308331BE2383314B30BA
:100688002000A8002808A0002B30A9002908A100F4
:1006980002308231DA228331023020002B0603191E
:1006A800502B2B08031D5A2B01300800003008007E
:1006B8002000A501A6012008210403198C2BA701FD
:1006C800A70AA11B712B0130A035A10D890B682B3E
:1006D8000130A4002408A707652B0130A535A60D15
:1006E800890B722B21082302031D7C2B2008220270
:1006F800031C832B2008A2022108A33B25140130E8
:10070800A136A00C890B842B0130A702031D712B85
:100718002608A1002508A0000800200028082904B0
:100728000319B92BAD01AD0AA91BA42B0130A835BB
:10073800A90D890B9B2B0130AC002C08AD07982B19
:1007480029082B02031DAA2B28082A02031CB02BF8
:100758002808AA022908AB3B0130A936A80C890B46
:10076800B12B0130AD02031DA42B2B08A9002A08C8
:10077800A80008002000A6002308A5002208A4005D
:10078800A435A50D2608860087012408C03F250842
:10079800C13F2608860087010130810441310030BD
:1007A80081042108A4002608023E86008701240847
:1007B80081002008A4002608033E8600870124083B
:1007C800810008002000A6002308A5002208A40034
:1007D800A435A50D2608860087012408C03F2508F2
:1007E800C13F2108A4002608023E8600870124088C
:1007F80081002008A4002608033E860087012408FB
:10080800810008002000A401A501201C0F2C22084B
:10081800A4072308A53D0130A235A30D890B102C90
:100828000130A136A00C890B152C20082104031DCA
:10083800092C2508A1002408A00008005B3020002E
:10084800A0002008C3005B30A0002008C200C41428
:100858004410C60180302300990028309A009C017A
:100868009F3097002E000F11191508008031472876
:10087800803172288031C6288031EB288131562991
:1008880081311D2981313229813156298131392916
:1008980081315A2980317A2880319D28F800230037
:1008A8001B157308023E8600870101080319672C8F
:1008B8007808F7007308023E860087010108860061
:1008C8008701770881002000CA010800013400343C
:1008D8000A34003464340034E834033410342734E0
:1008E800253464342E342534643400340A34003416
:1008F8000430F7007708F4070130F202031D8A2C50
:100908000430F70077082000CA0008002000CA0158
:10091800CA0A08008231942284318431C224843185
:1009280084312224843184319D2484318431AC245F
:100938000800793025009A0004309C009B019D0135
:100948002F30990098012E0090128431D724080086
:10095800083022009F0080309D0024309E004030E7
:100968009B0003309C0008002000A0002E000F1EF2
:10097800BA2C2000200822009A000800103031000C
:100988008D008F01910105309300920108006400E9
:1009980080010131890BCC2C00342000A1002108F2
:0E09A8008431B824080025009A1708000800C2
:020000040001F9
:0A000E009C3FFF3F9F3FFF1FFF3F95
:00000001FF
